8=FIX.4.4|9=66|35=A|34=1|49=OMS|52=20250811-14:45:01.601|56=MATCHENG|98=0|108=30|10=049|
8=FIX.4.4|9=66|35=A|34=1|49=MATCHENG|52=20250811-14:45:01.661|56=OMS|98=0|108=30|10=055|
8=FIX.4.4|9=143|35=D|34=2|49=OMS|52=20250811-14:45:01.782|56=MATCHENG|11=OMS_ORDER_1754923501714|21=1|38=100|40=2|44=150|54=1|55=AAPL|60=20250811-14:45:01.781|10=075|
8=FIX.4.4|9=66|35=A|34=3|49=OMS|52=20250811-14:47:30.202|56=MATCHENG|98=0|108=30|10=052|
8=FIX.4.4|9=66|35=A|34=2|49=MATCHENG|52=20250811-14:47:30.272|56=OMS|98=0|108=30|10=058|
8=FIX.4.4|9=143|35=D|34=4|49=OMS|52=20250811-14:47:30.387|56=MATCHENG|11=OMS_ORDER_1754923650326|21=1|38=100|40=2|44=150|54=1|55=AAPL|60=20250811-14:47:30.384|10=089|
8=FIX.4.4|9=66|35=A|34=5|49=OMS|52=20250811-14:54:05.900|56=MATCHENG|98=0|108=30|10=059|
8=FIX.4.4|9=66|35=A|34=3|49=MATCHENG|52=20250811-14:54:05.962|56=OMS|98=0|108=30|10=065|
8=FIX.4.4|9=143|35=D|34=6|49=OMS|52=20250811-14:54:06.092|56=MATCHENG|11=OMS_ORDER_1754924046024|21=1|38=100|40=2|44=150|54=1|55=AAPL|60=20250811-14:54:06.092|10=077|
8=FIX.4.4|9=54|35=0|34=4|49=MATCHENG|52=20250811-14:54:36.302|56=OMS|10=013|
8=FIX.4.4|9=54|35=0|34=7|49=OMS|52=20250811-14:54:36.303|56=MATCHENG|10=017|
8=FIX.4.4|9=54|35=0|34=5|49=MATCHENG|52=20250811-14:55:06.309|56=OMS|10=019|
8=FIX.4.4|9=54|35=0|34=8|49=OMS|52=20250811-14:55:06.311|56=MATCHENG|10=015|
8=FIX.4.4|9=54|35=0|34=6|49=MATCHENG|52=20250811-14:55:36.306|56=OMS|10=020|
8=FIX.4.4|9=54|35=0|34=9|49=OMS|52=20250811-14:55:36.309|56=MATCHENG|10=026|
8=FIX.4.4|9=54|35=0|34=7|49=MATCHENG|52=20250811-14:56:06.306|56=OMS|10=019|
8=FIX.4.4|9=55|35=0|34=10|49=OMS|52=20250811-14:56:06.306|56=MATCHENG|10=062|
8=FIX.4.4|9=54|35=0|34=8|49=MATCHENG|52=20250811-14:56:36.304|56=OMS|10=021|
8=FIX.4.4|9=55|35=0|34=11|49=OMS|52=20250811-14:56:36.304|56=MATCHENG|10=064|
8=FIX.4.4|9=54|35=0|34=9|49=MATCHENG|52=20250811-14:57:06.309|56=OMS|10=025|
8=FIX.4.4|9=55|35=0|34=12|49=OMS|52=20250811-14:57:06.311|56=MATCHENG|10=061|
8=FIX.4.4|9=55|35=0|34=10|49=MATCHENG|52=20250811-14:57:36.311|56=OMS|10=062|
8=FIX.4.4|9=55|35=0|34=13|49=OMS|52=20250811-14:57:36.312|56=MATCHENG|10=066|
8=FIX.4.4|9=55|35=0|34=11|49=MATCHENG|52=20250811-14:58:06.309|56=OMS|10=068|
8=FIX.4.4|9=55|35=0|34=14|49=OMS|52=20250811-14:58:06.310|56=MATCHENG|10=063|
8=FIX.4.4|9=55|35=0|34=12|49=MATCHENG|52=20250811-14:58:36.311|56=OMS|10=065|
8=FIX.4.4|9=55|35=0|34=15|49=OMS|52=20250811-14:58:36.312|56=MATCHENG|10=069|
8=FIX.4.4|9=55|35=0|34=13|49=MATCHENG|52=20250811-14:59:06.317|56=OMS|10=070|
8=FIX.4.4|9=55|35=0|34=16|49=OMS|52=20250811-14:59:06.318|56=MATCHENG|10=074|
8=FIX.4.4|9=55|35=0|34=14|49=MATCHENG|52=20250811-14:59:36.307|56=OMS|10=073|
8=FIX.4.4|9=55|35=0|34=17|49=OMS|52=20250811-14:59:36.890|56=MATCHENG|10=083|
8=FIX.4.4|9=55|35=0|34=15|49=MATCHENG|52=20250811-15:00:06.304|56=OMS|10=055|
8=FIX.4.4|9=55|35=0|34=18|49=OMS|52=20250811-15:00:06.892|56=MATCHENG|10=070|
8=FIX.4.4|9=55|35=0|34=16|49=MATCHENG|52=20250811-15:00:36.311|56=OMS|10=057|
8=FIX.4.4|9=55|35=0|34=19|49=OMS|52=20250811-15:00:36.894|56=MATCHENG|10=076|
8=FIX.4.4|9=66|35=A|34=1|49=OMS|52=20250812-06:38:01.000|56=MATCHENG|98=0|108=30|10=046|
8=FIX.4.4|9=66|35=A|34=1|49=MATCHENG|52=20250812-06:38:01.045|56=OMS|98=0|108=30|10=055|
8=FIX.4.4|9=143|35=D|34=2|49=OMS|52=20250812-06:38:01.128|56=MATCHENG|11=OMS_ORDER_1754980681085|21=1|38=100|40=2|44=150|54=1|55=AAPL|60=20250812-06:38:01.123|10=080|
8=FIX.4.4|9=66|35=A|34=3|49=OMS|52=20250812-06:47:08.393|56=MATCHENG|98=0|108=30|10=070|
8=FIX.4.4|9=66|35=A|34=2|49=MATCHENG|52=20250812-06:47:08.446|56=OMS|98=0|108=30|10=068|
8=FIX.4.4|9=143|35=D|34=4|49=OMS|52=20250812-06:47:08.539|56=MATCHENG|11=OMS_ORDER_1754981228489|21=1|38=100|40=2|44=150|54=1|55=AAPL|60=20250812-06:47:08.532|10=112|
8=FIX.4.4|9=54|35=0|34=3|49=MATCHENG|52=20250812-06:47:39.278|56=OMS|10=031|
8=FIX.4.4|9=54|35=0|34=5|49=OMS|52=20250812-06:47:39.279|56=MATCHENG|10=034|
8=FIX.4.4|9=54|35=0|34=4|49=MATCHENG|52=20250812-06:48:09.284|56=OMS|10=027|
8=FIX.4.4|9=54|35=0|34=6|49=OMS|52=20250812-06:48:09.286|56=MATCHENG|10=031|
8=FIX.4.4|9=54|35=0|34=5|49=MATCHENG|52=20250812-06:48:39.283|56=OMS|10=030|
8=FIX.4.4|9=54|35=0|34=7|49=OMS|52=20250812-06:48:39.284|56=MATCHENG|10=033|
8=FIX.4.4|9=54|35=0|34=6|49=MATCHENG|52=20250812-06:49:09.284|56=OMS|10=030|
8=FIX.4.4|9=54|35=0|34=8|49=OMS|52=20250812-06:49:09.286|56=MATCHENG|10=034|
8=FIX.4.4|9=54|35=0|34=7|49=MATCHENG|52=20250812-06:49:39.281|56=OMS|10=031|
8=FIX.4.4|9=54|35=0|34=9|49=OMS|52=20250812-06:49:39.283|56=MATCHENG|10=035|
8=FIX.4.4|9=54|35=0|34=8|49=MATCHENG|52=20250812-06:50:09.281|56=OMS|10=021|
8=FIX.4.4|9=55|35=0|34=10|49=OMS|52=20250812-06:50:09.283|56=MATCHENG|10=065|
8=FIX.4.4|9=54|35=0|34=9|49=MATCHENG|52=20250812-06:50:39.282|56=OMS|10=026|
8=FIX.4.4|9=55|35=0|34=11|49=OMS|52=20250812-06:50:39.283|56=MATCHENG|10=069|
8=FIX.4.4|9=55|35=0|34=10|49=MATCHENG|52=20250812-06:51:09.280|56=OMS|10=063|
8=FIX.4.4|9=55|35=0|34=12|49=OMS|52=20250812-06:51:09.281|56=MATCHENG|10=066|
8=FIX.4.4|9=55|35=0|34=11|49=MATCHENG|52=20250812-06:51:39.283|56=OMS|10=070|
8=FIX.4.4|9=55|35=0|34=13|49=OMS|52=20250812-06:51:39.284|56=MATCHENG|10=073|
8=FIX.4.4|9=55|35=0|34=12|49=MATCHENG|52=20250812-06:52:09.278|56=OMS|10=073|
8=FIX.4.4|9=55|35=0|34=14|49=OMS|52=20250812-06:52:09.279|56=MATCHENG|10=076|
8=FIX.4.4|9=55|35=0|34=13|49=MATCHENG|52=20250812-06:52:39.278|56=OMS|10=077|
8=FIX.4.4|9=55|35=0|34=15|49=OMS|52=20250812-06:52:39.279|56=MATCHENG|10=080|
8=FIX.4.4|9=55|35=0|34=14|49=MATCHENG|52=20250812-06:53:09.286|56=OMS|10=075|
8=FIX.4.4|9=55|35=0|34=16|49=OMS|52=20250812-06:53:09.287|56=MATCHENG|10=078|
8=FIX.4.4|9=55|35=0|34=15|49=MATCHENG|52=20250812-06:53:39.281|56=OMS|10=074|
8=FIX.4.4|9=55|35=0|34=17|49=OMS|52=20250812-06:53:39.282|56=MATCHENG|10=077|
8=FIX.4.4|9=55|35=0|34=16|49=MATCHENG|52=20250812-06:54:09.290|56=OMS|10=073|
8=FIX.4.4|9=55|35=0|34=18|49=OMS|52=20250812-06:54:09.291|56=MATCHENG|10=076|
8=FIX.4.4|9=55|35=0|34=17|49=MATCHENG|52=20250812-06:54:39.281|56=OMS|10=077|
8=FIX.4.4|9=55|35=0|34=19|49=OMS|52=20250812-06:54:39.389|56=MATCHENG|10=088|
8=FIX.4.4|9=55|35=0|34=18|49=MATCHENG|52=20250812-06:55:09.280|56=OMS|10=075|
8=FIX.4.4|9=55|35=0|34=20|49=OMS|52=20250812-06:55:09.380|56=MATCHENG|10=069|
8=FIX.4.4|9=55|35=0|34=19|49=MATCHENG|52=20250812-06:55:39.283|56=OMS|10=082|
8=FIX.4.4|9=55|35=0|34=21|49=OMS|52=20250812-06:55:39.392|56=MATCHENG|10=076|
8=FIX.4.4|9=55|35=0|34=20|49=MATCHENG|52=20250812-06:56:09.286|56=OMS|10=075|
8=FIX.4.4|9=55|35=0|34=22|49=OMS|52=20250812-06:56:09.383|56=MATCHENG|10=075|
8=FIX.4.4|9=55|35=0|34=21|49=MATCHENG|52=20250812-06:56:39.279|56=OMS|10=081|
8=FIX.4.4|9=55|35=0|34=23|49=OMS|52=20250812-06:56:39.383|56=MATCHENG|10=079|
8=FIX.4.4|9=55|35=0|34=22|49=MATCHENG|52=20250812-06:57:09.278|56=OMS|10=079|
8=FIX.4.4|9=55|35=0|34=24|49=OMS|52=20250812-06:57:09.387|56=MATCHENG|10=082|
8=FIX.4.4|9=55|35=0|34=23|49=MATCHENG|52=20250812-06:57:39.280|56=OMS|10=076|
8=FIX.4.4|9=55|35=0|34=25|49=OMS|52=20250812-06:57:39.392|56=MATCHENG|10=082|
8=FIX.4.4|9=55|35=0|34=24|49=MATCHENG|52=20250812-06:58:09.278|56=OMS|10=082|
8=FIX.4.4|9=55|35=0|34=26|49=OMS|52=20250812-06:58:10.389|56=MATCHENG|10=079|
8=FIX.4.4|9=55|35=0|34=25|49=MATCHENG|52=20250812-06:58:39.277|56=OMS|10=085|
8=FIX.4.4|9=55|35=0|34=27|49=OMS|52=20250812-06:58:40.380|56=MATCHENG|10=074|
8=FIX.4.4|9=55|35=0|34=26|49=MATCHENG|52=20250812-06:59:09.282|56=OMS|10=080|
8=FIX.4.4|9=55|35=0|34=28|49=OMS|52=20250812-06:59:10.379|56=MATCHENG|10=081|
8=FIX.4.4|9=55|35=0|34=27|49=MATCHENG|52=20250812-06:59:39.281|56=OMS|10=083|
8=FIX.4.4|9=55|35=0|34=29|49=OMS|52=20250812-06:59:40.387|56=MATCHENG|10=084|
8=FIX.4.4|9=55|35=0|34=28|49=MATCHENG|52=20250812-07:00:09.287|56=OMS|10=074|
8=FIX.4.4|9=55|35=0|34=30|49=OMS|52=20250812-07:00:10.385|56=MATCHENG|10=058|
8=FIX.4.4|9=55|35=0|34=29|49=MATCHENG|52=20250812-07:00:39.287|56=OMS|10=078|
8=FIX.4.4|9=55|35=0|34=31|49=OMS|52=20250812-07:00:40.384|56=MATCHENG|10=061|
8=FIX.4.4|9=55|35=0|34=30|49=MATCHENG|52=20250812-07:01:09.283|56=OMS|10=064|
8=FIX.4.4|9=55|35=0|34=32|49=OMS|52=20250812-07:01:10.387|56=MATCHENG|10=063|
8=FIX.4.4|9=55|35=0|34=31|49=MATCHENG|52=20250812-07:01:39.278|56=OMS|10=072|
8=FIX.4.4|9=55|35=0|34=33|49=OMS|52=20250812-07:01:40.380|56=MATCHENG|10=060|
8=FIX.4.4|9=55|35=0|34=32|49=MATCHENG|52=20250812-07:02:09.287|56=OMS|10=071|
8=FIX.4.4|9=55|35=0|34=34|49=OMS|52=20250812-07:02:10.393|56=MATCHENG|10=063|
8=FIX.4.4|9=55|35=0|34=33|49=MATCHENG|52=20250812-07:02:39.278|56=OMS|10=075|
8=FIX.4.4|9=55|35=0|34=35|49=OMS|52=20250812-07:02:41.383|56=MATCHENG|10=067|
8=FIX.4.4|9=55|35=0|34=34|49=MATCHENG|52=20250812-07:03:09.277|56=OMS|10=073|
8=FIX.4.4|9=55|35=0|34=36|49=OMS|52=20250812-07:03:11.393|56=MATCHENG|10=067|
8=FIX.4.4|9=55|35=0|34=35|49=MATCHENG|52=20250812-07:03:39.278|56=OMS|10=078|
8=FIX.4.4|9=55|35=0|34=37|49=OMS|52=20250812-07:03:41.391|56=MATCHENG|10=069|
8=FIX.4.4|9=55|35=0|34=36|49=MATCHENG|52=20250812-07:04:09.282|56=OMS|10=072|
8=FIX.4.4|9=55|35=0|34=38|49=OMS|52=20250812-07:04:12.379|56=MATCHENG|10=075|
8=FIX.4.4|9=55|35=0|34=37|49=MATCHENG|52=20250812-07:04:39.282|56=OMS|10=076|
8=FIX.4.4|9=55|35=0|34=39|49=OMS|52=20250812-07:04:42.379|56=MATCHENG|10=079|
8=FIX.4.4|9=55|35=0|34=38|49=MATCHENG|52=20250812-07:05:09.280|56=OMS|10=073|
8=FIX.4.4|9=55|35=0|34=40|49=OMS|52=20250812-07:05:12.384|56=MATCHENG|10=065|
8=FIX.4.4|9=55|35=0|34=39|49=MATCHENG|52=20250812-07:05:39.281|56=OMS|10=078|
8=FIX.4.4|9=55|35=0|34=41|49=OMS|52=20250812-07:05:42.384|56=MATCHENG|10=069|
8=FIX.4.4|9=55|35=0|34=40|49=MATCHENG|52=20250812-07:06:09.283|56=OMS|10=070|
8=FIX.4.4|9=55|35=0|34=42|49=OMS|52=20250812-07:06:12.383|56=MATCHENG|10=067|
8=FIX.4.4|9=55|35=0|34=41|49=MATCHENG|52=20250812-07:06:39.277|56=OMS|10=077|
8=FIX.4.4|9=55|35=0|34=43|49=OMS|52=20250812-07:06:42.387|56=MATCHENG|10=075|
8=FIX.4.4|9=55|35=0|34=42|49=MATCHENG|52=20250812-07:07:09.278|56=OMS|10=077|
8=FIX.4.4|9=55|35=0|34=44|49=OMS|52=20250812-07:07:12.389|56=MATCHENG|10=076|
8=FIX.4.4|9=55|35=0|34=43|49=MATCHENG|52=20250812-07:07:39.277|56=OMS|10=080|
8=FIX.4.4|9=55|35=0|34=45|49=OMS|52=20250812-07:07:42.381|56=MATCHENG|10=072|
8=FIX.4.4|9=55|35=0|34=44|49=MATCHENG|52=20250812-07:08:09.276|56=OMS|10=078|
8=FIX.4.4|9=55|35=0|34=46|49=OMS|52=20250812-07:08:12.387|56=MATCHENG|10=077|
8=FIX.4.4|9=55|35=0|34=45|49=MATCHENG|52=20250812-07:08:39.277|56=OMS|10=083|
8=FIX.4.4|9=55|35=0|34=47|49=OMS|52=20250812-07:08:42.382|56=MATCHENG|10=076|
8=FIX.4.4|9=55|35=0|34=46|49=MATCHENG|52=20250812-07:09:09.282|56=OMS|10=078|
8=FIX.4.4|9=55|35=0|34=48|49=OMS|52=20250812-07:09:12.394|56=MATCHENG|10=078|
8=FIX.4.4|9=55|35=0|34=47|49=MATCHENG|52=20250812-07:09:39.277|56=OMS|10=086|
8=FIX.4.4|9=55|35=0|34=49|49=OMS|52=20250812-07:09:43.392|56=MATCHENG|10=081|
8=FIX.4.4|9=55|35=0|34=48|49=MATCHENG|52=20250812-07:10:09.282|56=OMS|10=072|
8=FIX.4.4|9=55|35=0|34=50|49=OMS|52=20250812-07:10:13.393|56=MATCHENG|10=063|
8=FIX.4.4|9=55|35=0|34=49|49=MATCHENG|52=20250812-07:10:39.281|56=OMS|10=075|
8=FIX.4.4|9=55|35=0|34=51|49=OMS|52=20250812-07:10:44.393|56=MATCHENG|10=068|
8=FIX.4.4|9=55|35=0|34=50|49=MATCHENG|52=20250812-07:11:09.282|56=OMS|10=066|
8=FIX.4.4|9=55|35=0|34=52|49=OMS|52=20250812-07:11:15.383|56=MATCHENG|10=067|
8=FIX.4.4|9=55|35=0|34=51|49=MATCHENG|52=20250812-07:11:39.282|56=OMS|10=070|
8=FIX.4.4|9=55|35=0|34=53|49=OMS|52=20250812-07:11:45.379|56=MATCHENG|10=076|
8=FIX.4.4|9=55|35=0|34=52|49=MATCHENG|52=20250812-07:12:09.277|56=OMS|10=073|
8=FIX.4.4|9=55|35=0|34=54|49=OMS|52=20250812-07:12:15.388|56=MATCHENG|10=075|
8=FIX.4.4|9=67|35=A|34=55|49=OMS|52=20250812-07:13:06.690|56=MATCHENG|98=0|108=30|10=118|
8=FIX.4.4|9=67|35=A|34=53|49=MATCHENG|52=20250812-07:13:06.735|56=OMS|98=0|108=30|10=116|
8=FIX.4.4|9=144|35=D|34=56|49=OMS|52=20250812-07:13:06.812|56=MATCHENG|11=OMS_ORDER_1754982786772|21=1|38=100|40=2|44=150|54=1|55=AAPL|60=20250812-07:13:06.807|10=156|
8=FIX.4.4|9=67|35=A|34=57|49=OMS|52=20250812-07:16:55.835|56=MATCHENG|98=0|108=30|10=128|
8=FIX.4.4|9=67|35=A|34=54|49=MATCHENG|52=20250812-07:16:55.882|56=OMS|98=0|108=30|10=127|
8=FIX.4.4|9=144|35=D|34=58|49=OMS|52=20250812-07:16:55.967|56=MATCHENG|11=OMS_ORDER_1754983015924|21=1|38=100|40=2|44=150|54=1|55=AAPL|60=20250812-07:16:55.961|10=169|
8=FIX.4.4|9=55|35=0|34=55|49=MATCHENG|52=20250812-07:17:26.616|56=OMS|10=077|
8=FIX.4.4|9=55|35=0|34=59|49=OMS|52=20250812-07:17:26.617|56=MATCHENG|10=082|
8=FIX.4.4|9=67|35=A|34=60|49=OMS|52=20250812-07:21:53.053|56=MATCHENG|98=0|108=30|10=108|
8=FIX.4.4|9=67|35=A|34=56|49=MATCHENG|52=20250812-07:21:53.100|56=OMS|98=0|108=30|10=106|
8=FIX.4.4|9=144|35=D|34=61|49=OMS|52=20250812-07:21:53.185|56=MATCHENG|11=OMS_ORDER_1754983313141|21=1|38=100|40=2|44=150|54=1|55=AAPL|60=20250812-07:21:53.180|10=128|
8=FIX.4.4|9=55|35=0|34=57|49=MATCHENG|52=20250812-07:22:23.776|56=OMS|10=079|
8=FIX.4.4|9=55|35=0|34=62|49=OMS|52=20250812-07:22:23.778|56=MATCHENG|10=077|
8=FIX.4.4|9=67|35=A|34=63|49=OMS|52=20250812-07:23:58.406|56=MATCHENG|98=0|108=30|10=120|
8=FIX.4.4|9=67|35=A|34=58|49=MATCHENG|52=20250812-07:23:58.452|56=OMS|98=0|108=30|10=125|
8=FIX.4.4|9=144|35=D|34=64|49=OMS|52=20250812-07:23:58.539|56=MATCHENG|11=OMS_ORDER_1754983438491|21=1|38=100|40=2|44=150|54=1|55=AAPL|60=20250812-07:23:58.533|10=166|
8=FIX.4.4|9=55|35=0|34=59|49=MATCHENG|52=20250812-07:24:29.000|56=OMS|10=069|
8=FIX.4.4|9=55|35=0|34=65|49=OMS|52=20250812-07:24:29.002|56=MATCHENG|10=068|
8=FIX.4.4|9=67|35=A|34=66|49=OMS|52=20250812-07:26:19.080|56=MATCHENG|98=0|108=30|10=121|
8=FIX.4.4|9=67|35=A|34=60|49=MATCHENG|52=20250812-07:26:19.126|56=OMS|98=0|108=30|10=116|
8=FIX.4.4|9=144|35=D|34=67|49=OMS|52=20250812-07:26:19.208|56=MATCHENG|11=OMS_ORDER_1754983579167|21=1|38=100|40=2|44=150|54=1|55=AAPL|60=20250812-07:26:19.201|10=160|
8=FIX.4.4|9=55|35=0|34=61|49=MATCHENG|52=20250812-07:26:49.821|56=OMS|10=077|
8=FIX.4.4|9=55|35=0|34=68|49=OMS|52=20250812-07:26:49.822|56=MATCHENG|10=085|
8=FIX.4.4|9=67|35=A|34=69|49=OMS|52=20250812-07:27:56.280|56=MATCHENG|98=0|108=30|10=128|
8=FIX.4.4|9=67|35=A|34=62|49=MATCHENG|52=20250812-07:27:56.327|56=OMS|98=0|108=30|10=123|
8=FIX.4.4|9=144|35=D|34=70|49=OMS|52=20250812-07:27:56.409|56=MATCHENG|11=OMS_ORDER_1754983676367|21=1|38=100|40=2|44=150|54=1|55=AAPL|60=20250812-07:27:56.403|10=165|
8=FIX.4.4|9=188|35=8|34=63|49=MATCHENG|52=20250812-07:27:56.473|56=OMS|6=150|11=OMS_ORDER_1754983676367|14=100|17=EXEC_1754983676471|37=OMS_ORDER_1754983676367|38=100|39=2|44=150|54=1|55=AAPL|150=2|151=0|10=177|
8=FIX.4.4|9=55|35=0|34=64|49=MATCHENG|52=20250812-07:28:26.649|56=OMS|10=085|
8=FIX.4.4|9=55|35=0|34=71|49=OMS|52=20250812-07:28:26.650|56=MATCHENG|10=075|
8=FIX.4.4|9=55|35=0|34=65|49=MATCHENG|52=20250812-07:28:56.651|56=OMS|10=082|
8=FIX.4.4|9=55|35=0|34=72|49=OMS|52=20250812-07:28:56.652|56=MATCHENG|10=081|
8=FIX.4.4|9=55|35=0|34=73|49=OMS|52=20250812-07:29:27.279|56=MATCHENG|10=086|
8=FIX.4.4|9=55|35=0|34=66|49=MATCHENG|52=20250812-07:29:27.280|56=OMS|10=080|
8=FIX.4.4|9=67|35=A|34=74|49=OMS|52=20250812-07:31:16.963|56=MATCHENG|98=0|108=30|10=123|
8=FIX.4.4|9=67|35=A|34=67|49=MATCHENG|52=20250812-07:31:17.009|56=OMS|98=0|108=30|10=117|
8=FIX.4.4|9=144|35=D|34=75|49=OMS|52=20250812-07:31:17.090|56=MATCHENG|11=OMS_ORDER_1754983877046|21=1|38=100|40=2|44=150|54=1|55=AAPL|60=20250812-07:31:17.083|10=151|
8=FIX.4.4|9=188|35=8|34=68|49=MATCHENG|52=20250812-07:31:17.147|56=OMS|6=150|11=OMS_ORDER_1754983877046|14=100|17=EXEC_1754983877144|37=OMS_ORDER_1754983877046|38=100|39=2|44=150|54=1|55=AAPL|150=2|151=0|10=166|
8=FIX.4.4|9=55|35=0|34=76|49=OMS|52=20250812-07:31:47.964|56=MATCHENG|10=085|
8=FIX.4.4|9=55|35=0|34=69|49=MATCHENG|52=20250812-07:31:47.966|56=OMS|10=089|
8=FIX.4.4|9=55|35=0|34=77|49=OMS|52=20250812-07:32:17.963|56=MATCHENG|10=083|
8=FIX.4.4|9=55|35=0|34=70|49=MATCHENG|52=20250812-07:32:17.964|56=OMS|10=077|
8=FIX.4.4|9=55|35=0|34=78|49=OMS|52=20250812-07:32:47.961|56=MATCHENG|10=085|
8=FIX.4.4|9=55|35=0|34=71|49=MATCHENG|52=20250812-07:32:47.962|56=OMS|10=079|
8=FIX.4.4|9=55|35=0|34=79|49=OMS|52=20250812-07:33:17.960|56=MATCHENG|10=083|
8=FIX.4.4|9=55|35=0|34=72|49=MATCHENG|52=20250812-07:33:17.961|56=OMS|10=077|
8=FIX.4.4|9=55|35=0|34=80|49=OMS|52=20250812-07:33:47.959|56=MATCHENG|10=086|
8=FIX.4.4|9=55|35=0|34=73|49=MATCHENG|52=20250812-07:33:47.961|56=OMS|10=081|
8=FIX.4.4|9=55|35=0|34=81|49=OMS|52=20250812-07:34:17.973|56=MATCHENG|10=081|
8=FIX.4.4|9=55|35=0|34=74|49=MATCHENG|52=20250812-07:34:17.976|56=OMS|10=086|
8=FIX.4.4|9=55|35=0|34=82|49=OMS|52=20250812-07:34:47.965|56=MATCHENG|10=086|
8=FIX.4.4|9=55|35=0|34=75|49=MATCHENG|52=20250812-07:34:48.048|56=OMS|10=081|
8=FIX.4.4|9=55|35=0|34=83|49=OMS|52=20250812-07:35:17.964|56=MATCHENG|10=084|
8=FIX.4.4|9=55|35=0|34=76|49=MATCHENG|52=20250812-07:35:18.047|56=OMS|10=079|
8=FIX.4.4|9=55|35=0|34=84|49=OMS|52=20250812-07:35:47.963|56=MATCHENG|10=087|
8=FIX.4.4|9=55|35=0|34=77|49=MATCHENG|52=20250812-07:35:48.047|56=OMS|10=083|
8=FIX.4.4|9=55|35=0|34=85|49=OMS|52=20250812-07:36:17.963|56=MATCHENG|10=086|
8=FIX.4.4|9=55|35=0|34=78|49=MATCHENG|52=20250812-07:36:18.046|56=OMS|10=081|
8=FIX.4.4|9=55|35=0|34=86|49=OMS|52=20250812-07:36:47.964|56=MATCHENG|10=091|
8=FIX.4.4|9=55|35=0|34=79|49=MATCHENG|52=20250812-07:36:48.045|56=OMS|10=084|
8=FIX.4.4|9=55|35=0|34=87|49=OMS|52=20250812-07:37:17.961|56=MATCHENG|10=087|
8=FIX.4.4|9=55|35=0|34=80|49=MATCHENG|52=20250812-07:37:18.044|56=OMS|10=073|
8=FIX.4.4|9=55|35=0|34=88|49=OMS|52=20250812-07:37:47.963|56=MATCHENG|10=093|
8=FIX.4.4|9=55|35=0|34=81|49=MATCHENG|52=20250812-07:37:48.058|56=OMS|10=082|
8=FIX.4.4|9=55|35=0|34=89|49=OMS|52=20250812-07:38:17.960|56=MATCHENG|10=089|
8=FIX.4.4|9=55|35=0|34=82|49=MATCHENG|52=20250812-07:38:18.050|56=OMS|10=073|
8=FIX.4.4|9=55|35=0|34=90|49=OMS|52=20250812-07:38:47.959|56=MATCHENG|10=092|
8=FIX.4.4|9=55|35=0|34=83|49=MATCHENG|52=20250812-07:38:48.049|56=OMS|10=085|
8=FIX.4.4|9=55|35=0|34=91|49=OMS|52=20250812-07:39:17.959|56=MATCHENG|10=091|
8=FIX.4.4|9=55|35=0|34=84|49=MATCHENG|52=20250812-07:39:18.049|56=OMS|10=084|
8=FIX.4.4|9=55|35=0|34=92|49=OMS|52=20250812-07:39:47.965|56=MATCHENG|10=092|
8=FIX.4.4|9=55|35=0|34=85|49=MATCHENG|52=20250812-07:39:48.048|56=OMS|10=087|
8=FIX.4.4|9=55|35=0|34=93|49=OMS|52=20250812-07:40:17.964|56=MATCHENG|10=081|
8=FIX.4.4|9=55|35=0|34=86|49=MATCHENG|52=20250812-07:40:18.047|56=OMS|10=076|
8=FIX.4.4|9=55|35=0|34=94|49=OMS|52=20250812-07:40:47.964|56=MATCHENG|10=085|
8=FIX.4.4|9=55|35=0|34=87|49=MATCHENG|52=20250812-07:40:48.047|56=OMS|10=080|
8=FIX.4.4|9=55|35=0|34=95|49=OMS|52=20250812-07:41:17.963|56=MATCHENG|10=083|
8=FIX.4.4|9=55|35=0|34=88|49=MATCHENG|52=20250812-07:41:18.047|56=OMS|10=079|
8=FIX.4.4|9=55|35=0|34=96|49=OMS|52=20250812-07:41:47.962|56=MATCHENG|10=086|
8=FIX.4.4|9=55|35=0|34=89|49=MATCHENG|52=20250812-07:41:48.045|56=OMS|10=081|
8=FIX.4.4|9=67|35=A|34=97|49=OMS|52=20250812-07:43:49.963|56=MATCHENG|98=0|108=30|10=137|
8=FIX.4.4|9=67|35=A|34=90|49=MATCHENG|52=20250812-07:43:49.965|56=OMS|98=0|108=30|10=132|
8=FIX.4.4|9=144|35=D|34=98|49=OMS|52=20250812-07:43:49.968|56=MATCHENG|11=OMS_ORDER_1754984629967|21=1|38=100|40=2|44=150|54=1|55=AAPL|60=20250812-07:43:49.967|10=205|
8=FIX.4.4|9=188|35=8|34=91|49=MATCHENG|52=20250812-07:43:49.971|56=OMS|6=150|11=OMS_ORDER_1754984629967|14=100|17=EXEC_1754984629971|37=OMS_ORDER_1754984629967|38=100|39=2|44=150|54=1|55=AAPL|150=2|151=0|10=195|
8=FIX.4.4|9=55|35=0|34=99|49=OMS|52=20250812-07:44:19.960|56=MATCHENG|10=089|
8=FIX.4.4|9=55|35=0|34=92|49=MATCHENG|52=20250812-07:44:20.055|56=OMS|10=069|
8=FIX.4.4|9=56|35=0|34=100|49=OMS|52=20250812-07:44:49.962|56=MATCHENG|10=126|
8=FIX.4.4|9=55|35=0|34=93|49=MATCHENG|52=20250812-07:44:51.045|56=OMS|10=073|
8=FIX.4.4|9=56|35=0|34=101|49=OMS|52=20250812-07:45:19.972|56=MATCHENG|10=126|
8=FIX.4.4|9=55|35=0|34=94|49=MATCHENG|52=20250812-07:45:21.044|56=OMS|10=071|
8=FIX.4.4|9=56|35=0|34=102|49=OMS|52=20250812-07:45:50.967|56=MATCHENG|10=126|
8=FIX.4.4|9=55|35=0|34=95|49=MATCHENG|52=20250812-07:45:51.050|56=OMS|10=072|
8=FIX.4.4|9=68|35=A|34=103|49=OMS|52=20250812-07:46:47.468|56=MATCHENG|98=0|108=30|10=175|
8=FIX.4.4|9=67|35=A|34=96|49=MATCHENG|52=20250812-07:46:47.516|56=OMS|98=0|108=30|10=131|
8=FIX.4.4|9=145|35=D|34=104|49=OMS|52=20250812-07:46:47.616|56=MATCHENG|11=OMS_ORDER_1754984807557|21=1|38=100|40=2|44=150|54=1|55=AAPL|60=20250812-07:46:47.600|10=211|
8=FIX.4.4|9=145|35=D|34=105|49=OMS|52=20250812-07:46:47.617|56=MATCHENG|11=OMS_ORDER_1754984807617|21=1|38=100|40=2|44=150|54=2|55=AAPL|60=20250812-07:46:47.617|10=219|
8=FIX.4.4|9=188|35=8|34=97|49=MATCHENG|52=20250812-07:46:47.696|56=OMS|6=150|11=OMS_ORDER_1754984807557|14=100|17=EXEC_1754984807694|37=OMS_ORDER_1754984807557|38=100|39=2|44=150|54=1|55=AAPL|150=2|151=0|10=192|
8=FIX.4.4|9=184|35=8|34=98|49=MATCHENG|52=20250812-07:46:47.698|56=OMS|6=150|11=OMS_ORDER_1754984807617|14=0|17=EXEC_1754984807698|37=OMS_ORDER_1754984807617|38=0|39=2|44=150|54=2|55=AAPL|150=2|151=0|10=252|
8=FIX.4.4|9=55|35=0|34=99|49=MATCHENG|52=20250812-07:47:18.027|56=OMS|10=085|
8=FIX.4.4|9=56|35=0|34=106|49=OMS|52=20250812-07:47:18.028|56=MATCHENG|10=124|
8=FIX.4.4|9=56|35=0|34=100|49=MATCHENG|52=20250812-07:47:48.034|56=OMS|10=118|
8=FIX.4.4|9=56|35=0|34=107|49=OMS|52=20250812-07:47:48.035|56=MATCHENG|10=126|
8=FIX.4.4|9=56|35=0|34=101|49=MATCHENG|52=20250812-07:48:18.034|56=OMS|10=117|
8=FIX.4.4|9=56|35=0|34=108|49=OMS|52=20250812-07:48:18.035|56=MATCHENG|10=125|
8=FIX.4.4|9=56|35=0|34=102|49=MATCHENG|52=20250812-07:48:48.031|56=OMS|10=118|
8=FIX.4.4|9=56|35=0|34=109|49=OMS|52=20250812-07:48:48.032|56=MATCHENG|10=126|
8=FIX.4.4|9=56|35=0|34=103|49=MATCHENG|52=20250812-07:49:18.033|56=OMS|10=119|
8=FIX.4.4|9=56|35=0|34=110|49=OMS|52=20250812-07:49:18.034|56=MATCHENG|10=118|
8=FIX.4.4|9=56|35=0|34=104|49=MATCHENG|52=20250812-07:49:48.031|56=OMS|10=121|
8=FIX.4.4|9=56|35=0|34=111|49=OMS|52=20250812-07:49:48.031|56=MATCHENG|10=119|
8=FIX.4.4|9=56|35=0|34=105|49=MATCHENG|52=20250812-07:50:18.033|56=OMS|10=113|
8=FIX.4.4|9=56|35=0|34=112|49=OMS|52=20250812-07:50:18.033|56=MATCHENG|10=111|
8=FIX.4.4|9=56|35=0|34=106|49=MATCHENG|52=20250812-07:50:48.042|56=OMS|10=117|
8=FIX.4.4|9=56|35=0|34=113|49=OMS|52=20250812-07:50:48.042|56=MATCHENG|10=115|
8=FIX.4.4|9=56|35=0|34=107|49=MATCHENG|52=20250812-07:51:18.042|56=OMS|10=116|
8=FIX.4.4|9=56|35=0|34=114|49=OMS|52=20250812-07:51:18.042|56=MATCHENG|10=114|
8=FIX.4.4|9=56|35=0|34=115|49=OMS|52=20250812-07:51:48.456|56=MATCHENG|10=127|
8=FIX.4.4|9=56|35=0|34=108|49=MATCHENG|52=20250812-07:51:48.456|56=OMS|10=129|
8=FIX.4.4|9=56|35=0|34=116|49=OMS|52=20250812-07:52:18.466|56=MATCHENG|10=127|
8=FIX.4.4|9=56|35=0|34=109|49=MATCHENG|52=20250812-07:52:18.467|56=OMS|10=130|
8=FIX.4.4|9=56|35=0|34=117|49=OMS|52=20250812-07:52:48.457|56=MATCHENG|10=131|
8=FIX.4.4|9=56|35=0|34=110|49=MATCHENG|52=20250812-07:52:49.030|56=OMS|10=112|
8=FIX.4.4|9=56|35=0|34=118|49=OMS|52=20250812-07:53:18.467|56=MATCHENG|10=131|
8=FIX.4.4|9=56|35=0|34=111|49=MATCHENG|52=20250812-07:53:19.040|56=OMS|10=112|
8=FIX.4.4|9=56|35=0|34=119|49=OMS|52=20250812-07:53:49.469|56=MATCHENG|10=138|
8=FIX.4.4|9=56|35=0|34=112|49=MATCHENG|52=20250812-07:53:49.469|56=OMS|10=131|
8=FIX.4.4|9=56|35=0|34=113|49=MATCHENG|52=20250812-07:54:20.033|56=OMS|10=109|
8=FIX.4.4|9=56|35=0|34=120|49=OMS|52=20250812-07:54:20.033|56=MATCHENG|10=107|
8=FIX.4.4|9=56|35=0|34=114|49=MATCHENG|52=20250812-07:54:50.037|56=OMS|10=117|
8=FIX.4.4|9=56|35=0|34=121|49=OMS|52=20250812-07:54:50.037|56=MATCHENG|10=115|
8=FIX.4.4|9=56|35=0|34=115|49=MATCHENG|52=20250812-07:55:20.038|56=OMS|10=117|
8=FIX.4.4|9=56|35=0|34=122|49=OMS|52=20250812-07:55:20.039|56=MATCHENG|10=116|
8=FIX.4.4|9=56|35=0|34=116|49=MATCHENG|52=20250812-07:55:50.031|56=OMS|10=114|
8=FIX.4.4|9=56|35=0|34=123|49=OMS|52=20250812-07:55:50.031|56=MATCHENG|10=112|
8=FIX.4.4|9=56|35=0|34=117|49=MATCHENG|52=20250812-07:56:20.041|56=OMS|10=114|
8=FIX.4.4|9=56|35=0|34=124|49=OMS|52=20250812-07:56:20.041|56=MATCHENG|10=112|
8=FIX.4.4|9=56|35=0|34=125|49=OMS|52=20250812-07:56:50.458|56=MATCHENG|10=128|
8=FIX.4.4|9=56|35=0|34=118|49=MATCHENG|52=20250812-07:56:50.458|56=OMS|10=130|
8=FIX.4.4|9=56|35=0|34=126|49=OMS|52=20250812-07:57:20.457|56=MATCHENG|10=126|
8=FIX.4.4|9=56|35=0|34=119|49=MATCHENG|52=20250812-07:57:20.457|56=OMS|10=128|
8=FIX.4.4|9=56|35=0|34=127|49=OMS|52=20250812-07:57:50.469|56=MATCHENG|10=133|
8=FIX.4.4|9=56|35=0|34=120|49=MATCHENG|52=20250812-07:57:50.469|56=OMS|10=126|
8=FIX.4.4|9=56|35=0|34=121|49=MATCHENG|52=20250812-07:58:21.036|56=OMS|10=116|
8=FIX.4.4|9=56|35=0|34=128|49=OMS|52=20250812-07:58:21.036|56=MATCHENG|10=123|
8=FIX.4.4|9=56|35=0|34=122|49=MATCHENG|52=20250812-07:58:51.039|56=OMS|10=123|
8=FIX.4.4|9=56|35=0|34=129|49=OMS|52=20250812-07:58:51.039|56=MATCHENG|10=130|
8=FIX.4.4|9=56|35=0|34=130|49=OMS|52=20250812-07:59:21.469|56=MATCHENG|10=127|
8=FIX.4.4|9=56|35=0|34=123|49=MATCHENG|52=20250812-07:59:21.469|56=OMS|10=129|
8=FIX.4.4|9=56|35=0|34=131|49=OMS|52=20250812-07:59:51.460|56=MATCHENG|10=122|
8=FIX.4.4|9=56|35=0|34=124|49=MATCHENG|52=20250812-07:59:51.460|56=OMS|10=124|
8=FIX.4.4|9=56|35=0|34=132|49=OMS|52=20250812-08:00:21.470|56=MATCHENG|10=108|
8=FIX.4.4|9=56|35=0|34=125|49=MATCHENG|52=20250812-08:00:21.470|56=OMS|10=110|
8=FIX.4.4|9=56|35=0|34=126|49=MATCHENG|52=20250812-08:00:52.030|56=OMS|10=107|
8=FIX.4.4|9=56|35=0|34=133|49=OMS|52=20250812-08:00:52.032|56=MATCHENG|10=107|
8=FIX.4.4|9=56|35=0|34=127|49=MATCHENG|52=20250812-08:01:22.038|56=OMS|10=114|
8=FIX.4.4|9=56|35=0|34=134|49=OMS|52=20250812-08:01:22.039|56=MATCHENG|10=113|
8=FIX.4.4|9=56|35=0|34=128|49=MATCHENG|52=20250812-08:01:52.032|56=OMS|10=112|
8=FIX.4.4|9=56|35=0|34=135|49=OMS|52=20250812-08:01:52.032|56=MATCHENG|10=110|
8=FIX.4.4|9=56|35=0|34=129|49=MATCHENG|52=20250812-08:02:22.026|56=OMS|10=114|
8=FIX.4.4|9=56|35=0|34=136|49=OMS|52=20250812-08:02:22.028|56=MATCHENG|10=114|
8=FIX.4.4|9=56|35=0|34=130|49=MATCHENG|52=20250812-08:02:52.026|56=OMS|10=109|
8=FIX.4.4|9=56|35=0|34=137|49=OMS|52=20250812-08:02:52.027|56=MATCHENG|10=117|
8=FIX.4.4|9=56|35=0|34=131|49=MATCHENG|52=20250812-08:03:22.028|56=OMS|10=110|
8=FIX.4.4|9=56|35=0|34=138|49=OMS|52=20250812-08:03:22.030|56=MATCHENG|10=110|
8=FIX.4.4|9=56|35=0|34=132|49=MATCHENG|52=20250812-08:03:52.032|56=OMS|10=109|
8=FIX.4.4|9=56|35=0|34=139|49=OMS|52=20250812-08:03:52.032|56=MATCHENG|10=116|
8=FIX.4.4|9=56|35=0|34=133|49=MATCHENG|52=20250812-08:04:22.039|56=OMS|10=115|
8=FIX.4.4|9=56|35=0|34=140|49=OMS|52=20250812-08:04:22.039|56=MATCHENG|10=113|
8=FIX.4.4|9=56|35=0|34=134|49=MATCHENG|52=20250812-08:04:52.033|56=OMS|10=113|
8=FIX.4.4|9=56|35=0|34=141|49=OMS|52=20250812-08:04:52.033|56=MATCHENG|10=111|
8=FIX.4.4|9=56|35=0|34=135|49=MATCHENG|52=20250812-08:05:22.028|56=OMS|10=116|
8=FIX.4.4|9=56|35=0|34=142|49=OMS|52=20250812-08:05:22.028|56=MATCHENG|10=114|
8=FIX.4.4|9=56|35=0|34=136|49=MATCHENG|52=20250812-08:05:52.054|56=OMS|10=119|
8=FIX.4.4|9=56|35=0|34=143|49=OMS|52=20250812-08:05:52.056|56=MATCHENG|10=119|
8=FIX.4.4|9=56|35=0|34=144|49=OMS|52=20250812-08:06:22.457|56=MATCHENG|10=123|
8=FIX.4.4|9=56|35=0|34=137|49=MATCHENG|52=20250812-08:06:22.459|56=OMS|10=127|
8=FIX.4.4|9=56|35=0|34=145|49=OMS|52=20250812-08:06:52.466|56=MATCHENG|10=127|
8=FIX.4.4|9=56|35=0|34=138|49=MATCHENG|52=20250812-08:06:52.466|56=OMS|10=129|
8=FIX.4.4|9=56|35=0|34=146|49=OMS|52=20250812-08:07:22.462|56=MATCHENG|10=122|
8=FIX.4.4|9=56|35=0|34=139|49=MATCHENG|52=20250812-08:07:22.462|56=OMS|10=124|
8=FIX.4.4|9=56|35=0|34=147|49=OMS|52=20250812-08:07:52.462|56=MATCHENG|10=126|
8=FIX.4.4|9=56|35=0|34=140|49=MATCHENG|52=20250812-08:07:52.462|56=OMS|10=119|
8=FIX.4.4|9=56|35=0|34=148|49=OMS|52=20250812-08:08:22.469|56=MATCHENG|10=132|
8=FIX.4.4|9=56|35=0|34=141|49=MATCHENG|52=20250812-08:08:22.469|56=OMS|10=125|
8=FIX.4.4|9=56|35=0|34=149|49=OMS|52=20250812-08:08:52.469|56=MATCHENG|10=136|
8=FIX.4.4|9=56|35=0|34=142|49=MATCHENG|52=20250812-08:08:52.469|56=OMS|10=129|
8=FIX.4.4|9=56|35=0|34=150|49=OMS|52=20250812-08:09:22.462|56=MATCHENG|10=119|
8=FIX.4.4|9=56|35=0|34=143|49=MATCHENG|52=20250812-08:09:22.462|56=OMS|10=121|
8=FIX.4.4|9=56|35=0|34=151|49=OMS|52=20250812-08:09:52.457|56=MATCHENG|10=127|
8=FIX.4.4|9=56|35=0|34=144|49=MATCHENG|52=20250812-08:09:52.457|56=OMS|10=129|
8=FIX.4.4|9=56|35=0|34=152|49=OMS|52=20250812-08:10:22.458|56=MATCHENG|10=118|
8=FIX.4.4|9=56|35=0|34=145|49=MATCHENG|52=20250812-08:10:22.458|56=OMS|10=120|
8=FIX.4.4|9=56|35=0|34=153|49=OMS|52=20250812-08:10:52.467|56=MATCHENG|10=122|
8=FIX.4.4|9=56|35=0|34=146|49=MATCHENG|52=20250812-08:10:52.467|56=OMS|10=124|
8=FIX.4.4|9=56|35=0|34=154|49=OMS|52=20250812-08:11:22.465|56=MATCHENG|10=119|
8=FIX.4.4|9=56|35=0|34=147|49=MATCHENG|52=20250812-08:11:22.465|56=OMS|10=121|
8=FIX.4.4|9=56|35=0|34=155|49=OMS|52=20250812-08:11:52.461|56=MATCHENG|10=119|
8=FIX.4.4|9=56|35=0|34=148|49=MATCHENG|52=20250812-08:11:52.463|56=OMS|10=123|
8=FIX.4.4|9=56|35=0|34=156|49=OMS|52=20250812-08:12:22.462|56=MATCHENG|10=119|
8=FIX.4.4|9=56|35=0|34=149|49=MATCHENG|52=20250812-08:12:22.462|56=OMS|10=121|
8=FIX.4.4|9=56|35=0|34=157|49=OMS|52=20250812-08:12:52.459|56=MATCHENG|10=129|
8=FIX.4.4|9=56|35=0|34=150|49=MATCHENG|52=20250812-08:12:52.459|56=OMS|10=122|
8=FIX.4.4|9=56|35=0|34=158|49=OMS|52=20250812-08:13:22.455|56=MATCHENG|10=124|
8=FIX.4.4|9=56|35=0|34=151|49=MATCHENG|52=20250812-08:13:22.455|56=OMS|10=117|
8=FIX.4.4|9=56|35=0|34=159|49=OMS|52=20250812-08:13:52.458|56=MATCHENG|10=131|
8=FIX.4.4|9=56|35=0|34=152|49=MATCHENG|52=20250812-08:13:52.458|56=OMS|10=124|
8=FIX.4.4|9=56|35=0|34=160|49=OMS|52=20250812-08:14:22.459|56=MATCHENG|10=122|
8=FIX.4.4|9=56|35=0|34=153|49=MATCHENG|52=20250812-08:14:22.460|56=OMS|10=116|
8=FIX.4.4|9=68|35=A|34=161|49=OMS|52=20250812-08:15:35.366|56=MATCHENG|98=0|108=30|10=170|
8=FIX.4.4|9=68|35=A|34=154|49=MATCHENG|52=20250812-08:15:35.476|56=OMS|98=0|108=30|10=174|
8=FIX.4.4|9=145|35=D|34=162|49=OMS|52=20250812-08:15:35.660|56=MATCHENG|11=OMS_ORDER_1754986535573|21=1|38=100|40=2|44=150|54=1|55=AAPL|60=20250812-08:15:35.652|10=207|
8=FIX.4.4|9=145|35=D|34=163|49=OMS|52=20250812-08:15:35.661|56=MATCHENG|11=OMS_ORDER_1754986535661|21=1|38=100|40=2|44=150|54=2|55=AAPL|60=20250812-08:15:35.661|10=208|
8=FIX.4.4|9=189|35=8|34=155|49=MATCHENG|52=20250812-08:15:35.750|56=OMS|6=150|11=OMS_ORDER_1754986535573|14=100|17=EXEC_1754986535748|37=OMS_ORDER_1754986535573|38=100|39=2|44=150|54=1|55=AAPL|150=2|151=0|10=217|
8=FIX.4.4|9=185|35=8|34=156|49=MATCHENG|52=20250812-08:15:35.750|56=OMS|6=150|11=OMS_ORDER_1754986535661|14=0|17=EXEC_1754986535750|37=OMS_ORDER_1754986535661|38=0|39=2|44=150|54=2|55=AAPL|150=2|151=0|10=010|
8=FIX.4.4|9=56|35=0|34=157|49=MATCHENG|52=20250812-08:16:06.057|56=OMS|10=126|
8=FIX.4.4|9=56|35=0|34=164|49=OMS|52=20250812-08:16:06.057|56=MATCHENG|10=124|
8=FIX.4.4|9=56|35=0|34=158|49=MATCHENG|52=20250812-08:16:36.052|56=OMS|10=125|
8=FIX.4.4|9=56|35=0|34=165|49=OMS|52=20250812-08:16:36.052|56=MATCHENG|10=123|
8=FIX.4.4|9=56|35=0|34=159|49=MATCHENG|52=20250812-08:17:06.050|56=OMS|10=122|
8=FIX.4.4|9=56|35=0|34=166|49=OMS|52=20250812-08:17:06.050|56=MATCHENG|10=120|
8=FIX.4.4|9=56|35=0|34=160|49=MATCHENG|52=20250812-08:17:36.055|56=OMS|10=122|
8=FIX.4.4|9=56|35=0|34=167|49=OMS|52=20250812-08:17:36.055|56=MATCHENG|10=129|
8=FIX.4.4|9=56|35=0|34=161|49=MATCHENG|52=20250812-08:18:06.046|56=OMS|10=121|
8=FIX.4.4|9=56|35=0|34=168|49=OMS|52=20250812-08:18:06.049|56=MATCHENG|10=131|
8=FIX.4.4|9=56|35=0|34=162|49=MATCHENG|52=20250812-08:18:36.049|56=OMS|10=128|
8=FIX.4.4|9=56|35=0|34=169|49=OMS|52=20250812-08:18:36.049|56=MATCHENG|10=135|
8=FIX.4.4|9=56|35=0|34=163|49=MATCHENG|52=20250812-08:19:06.053|56=OMS|10=122|
8=FIX.4.4|9=56|35=0|34=170|49=OMS|52=20250812-08:19:06.053|56=MATCHENG|10=120|
8=FIX.4.4|9=56|35=0|34=164|49=MATCHENG|52=20250812-08:19:36.053|56=OMS|10=126|
8=FIX.4.4|9=56|35=0|34=171|49=OMS|52=20250812-08:19:36.053|56=MATCHENG|10=124|
8=FIX.4.4|9=56|35=0|34=165|49=MATCHENG|52=20250812-08:20:06.060|56=OMS|10=114|
8=FIX.4.4|9=56|35=0|34=172|49=OMS|52=20250812-08:20:06.060|56=MATCHENG|10=112|
8=FIX.4.4|9=56|35=0|34=166|49=MATCHENG|52=20250812-08:20:36.058|56=OMS|10=125|
8=FIX.4.4|9=56|35=0|34=173|49=OMS|52=20250812-08:20:36.059|56=MATCHENG|10=124|
8=FIX.4.4|9=56|35=0|34=167|49=MATCHENG|52=20250812-08:21:06.056|56=OMS|10=122|
8=FIX.4.4|9=56|35=0|34=174|49=OMS|52=20250812-08:21:06.059|56=MATCHENG|10=123|
8=FIX.4.4|9=56|35=0|34=168|49=MATCHENG|52=20250812-08:21:36.056|56=OMS|10=126|
8=FIX.4.4|9=56|35=0|34=175|49=OMS|52=20250812-08:21:36.057|56=MATCHENG|10=125|
8=FIX.4.4|9=56|35=0|34=169|49=MATCHENG|52=20250812-08:22:06.050|56=OMS|10=119|
8=FIX.4.4|9=56|35=0|34=176|49=OMS|52=20250812-08:22:06.051|56=MATCHENG|10=118|
8=FIX.4.4|9=56|35=0|34=170|49=MATCHENG|52=20250812-08:22:36.061|56=OMS|10=116|
8=FIX.4.4|9=56|35=0|34=177|49=OMS|52=20250812-08:22:36.063|56=MATCHENG|10=125|
8=FIX.4.4|9=56|35=0|34=171|49=MATCHENG|52=20250812-08:23:06.057|56=OMS|10=120|
8=FIX.4.4|9=56|35=0|34=178|49=OMS|52=20250812-08:23:06.059|56=MATCHENG|10=129|
8=FIX.4.4|9=56|35=0|34=172|49=MATCHENG|52=20250812-08:23:36.059|56=OMS|10=126|
8=FIX.4.4|9=56|35=0|34=179|49=OMS|52=20250812-08:23:36.061|56=MATCHENG|10=126|
8=FIX.4.4|9=56|35=0|34=173|49=MATCHENG|52=20250812-08:24:06.053|56=OMS|10=119|
8=FIX.4.4|9=56|35=0|34=180|49=OMS|52=20250812-08:24:06.053|56=MATCHENG|10=117|
8=FIX.4.4|9=56|35=0|34=174|49=MATCHENG|52=20250812-08:24:36.056|56=OMS|10=126|
8=FIX.4.4|9=56|35=0|34=181|49=OMS|52=20250812-08:24:36.056|56=MATCHENG|10=124|
8=FIX.4.4|9=56|35=0|34=175|49=MATCHENG|52=20250812-08:25:06.049|56=OMS|10=127|
8=FIX.4.4|9=56|35=0|34=182|49=OMS|52=20250812-08:25:06.049|56=MATCHENG|10=125|
8=FIX.4.4|9=56|35=0|34=176|49=MATCHENG|52=20250812-08:25:36.056|56=OMS|10=129|
8=FIX.4.4|9=56|35=0|34=183|49=OMS|52=20250812-08:25:36.056|56=MATCHENG|10=127|
8=FIX.4.4|9=56|35=0|34=177|49=MATCHENG|52=20250812-08:26:06.053|56=OMS|10=125|
8=FIX.4.4|9=56|35=0|34=184|49=OMS|52=20250812-08:26:06.053|56=MATCHENG|10=123|
8=FIX.4.4|9=56|35=0|34=178|49=MATCHENG|52=20250812-08:26:36.049|56=OMS|10=134|
8=FIX.4.4|9=56|35=0|34=185|49=OMS|52=20250812-08:26:36.049|56=MATCHENG|10=132|
8=FIX.4.4|9=56|35=0|34=179|49=MATCHENG|52=20250812-08:27:06.050|56=OMS|10=125|
8=FIX.4.4|9=56|35=0|34=186|49=OMS|52=20250812-08:27:06.050|56=MATCHENG|10=123|
8=FIX.4.4|9=56|35=0|34=180|49=MATCHENG|52=20250812-08:27:36.051|56=OMS|10=121|
8=FIX.4.4|9=56|35=0|34=187|49=OMS|52=20250812-08:27:36.053|56=MATCHENG|10=130|
8=FIX.4.4|9=56|35=0|34=181|49=MATCHENG|52=20250812-08:28:06.048|56=OMS|10=126|
8=FIX.4.4|9=56|35=0|34=188|49=OMS|52=20250812-08:28:06.048|56=MATCHENG|10=133|
8=FIX.4.4|9=56|35=0|34=182|49=MATCHENG|52=20250812-08:28:36.048|56=OMS|10=130|
8=FIX.4.4|9=56|35=0|34=189|49=OMS|52=20250812-08:28:36.048|56=MATCHENG|10=137|
8=FIX.4.4|9=56|35=0|34=183|49=MATCHENG|52=20250812-08:29:06.050|56=OMS|10=122|
8=FIX.4.4|9=56|35=0|34=190|49=OMS|52=20250812-08:29:06.053|56=MATCHENG|10=123|
8=FIX.4.4|9=56|35=0|34=184|49=MATCHENG|52=20250812-08:29:36.052|56=OMS|10=128|
8=FIX.4.4|9=56|35=0|34=191|49=OMS|52=20250812-08:29:36.054|56=MATCHENG|10=128|
8=FIX.4.4|9=56|35=0|34=185|49=MATCHENG|52=20250812-08:30:06.050|56=OMS|10=116|
8=FIX.4.4|9=56|35=0|34=192|49=OMS|52=20250812-08:30:06.053|56=MATCHENG|10=117|
8=FIX.4.4|9=56|35=0|34=186|49=MATCHENG|52=20250812-08:30:36.047|56=OMS|10=126|
8=FIX.4.4|9=56|35=0|34=193|49=OMS|52=20250812-08:30:36.047|56=MATCHENG|10=124|
8=FIX.4.4|9=56|35=0|34=187|49=MATCHENG|52=20250812-08:31:06.058|56=OMS|10=127|
8=FIX.4.4|9=56|35=0|34=194|49=OMS|52=20250812-08:31:06.058|56=MATCHENG|10=125|
8=FIX.4.4|9=56|35=0|34=188|49=MATCHENG|52=20250812-08:31:36.054|56=OMS|10=127|
8=FIX.4.4|9=56|35=0|34=195|49=OMS|52=20250812-08:31:36.056|56=MATCHENG|10=127|
8=FIX.4.4|9=56|35=0|34=189|49=MATCHENG|52=20250812-08:32:06.050|56=OMS|10=122|
8=FIX.4.4|9=56|35=0|34=196|49=OMS|52=20250812-08:32:06.050|56=MATCHENG|10=120|
8=FIX.4.4|9=68|35=A|34=199|49=OMS|52=20250812-09:02:40.920|56=MATCHENG|98=0|108=30|10=170|
8=FIX.4.4|9=68|35=A|34=190|49=MATCHENG|52=20250812-09:02:40.982|56=OMS|98=0|108=30|10=169|
8=FIX.4.4|9=67|35=2|34=191|49=MATCHENG|52=20250812-09:02:41.022|56=OMS|7=197|16=0|10=094|
8=FIX.4.4|9=145|35=D|34=200|49=OMS|52=20250812-09:02:41.084|56=MATCHENG|11=OMS_ORDER_1754989361031|21=1|38=100|40=2|44=150|54=1|55=AAPL|60=20250812-09:02:41.077|10=178|
8=FIX.4.4|9=145|35=D|34=201|49=OMS|52=20250812-09:02:41.084|56=MATCHENG|11=OMS_ORDER_1754989361084|21=1|38=100|40=2|44=150|54=2|55=AAPL|60=20250812-09:02:41.084|10=186|
8=FIX.4.4|9=100|35=4|34=197|43=Y|49=OMS|52=20250812-09:02:41.090|56=MATCHENG|122=20250812-09:02:41.090|36=200|123=Y|10=007|
8=FIX.4.4|9=176|35=D|34=200|43=Y|49=OMS|52=20250812-09:02:41.090|56=MATCHENG|122=20250812-09:02:41.084|11=OMS_ORDER_1754989361031|21=1|38=100|40=2|44=150|54=1|55=AAPL|60=20250812-09:02:41.077|10=179|
8=FIX.4.4|9=176|35=D|34=201|43=Y|49=OMS|52=20250812-09:02:41.090|56=MATCHENG|122=20250812-09:02:41.084|11=OMS_ORDER_1754989361084|21=1|38=100|40=2|44=150|54=2|55=AAPL|60=20250812-09:02:41.084|10=187|
8=FIX.4.4|9=189|35=8|34=192|49=MATCHENG|52=20250812-09:02:41.164|56=OMS|6=150|11=OMS_ORDER_1754989361031|14=100|17=EXEC_1754989361162|37=OMS_ORDER_1754989361031|38=100|39=2|44=150|54=1|55=AAPL|150=2|151=0|10=179|
8=FIX.4.4|9=185|35=8|34=193|49=MATCHENG|52=20250812-09:02:41.164|56=OMS|6=150|11=OMS_ORDER_1754989361084|14=0|17=EXEC_1754989361164|37=OMS_ORDER_1754989361084|38=0|39=2|44=150|54=2|55=AAPL|150=2|151=0|10=001|
8=FIX.4.4|9=56|35=0|34=194|49=MATCHENG|52=20250812-09:03:11.407|56=OMS|10=119|
8=FIX.4.4|9=56|35=0|34=202|49=OMS|52=20250812-09:03:11.407|56=MATCHENG|10=109|
